:020000040800F2
:10000000900A0020CD010008791500082D0A00088B
:1000100041150008F5030008DF2C0008000000006F
:10002000000000000000000000000000A11B00080C
:10003000F90300080000000091150008E31F000804
:10004000E7010008E7010008E7010008E7010008F0
:10005000E7010008E7010008E7010008E7010008E0
:10006000E7010008E7010008E7010008E7010008D0
:10007000E7010008E7010008E7010008E7010008C0
:10008000E7010008E7010008E7010008E7010008B0
:10009000E7010008E7010008E7010008E7010008A0
:1000A000E7010008E7010008E7010008E701000890
:1000B000E7010008E7010008E7010008E701000880
:1000C000E7010008E7010008E7010008E701000870
:1000D000E7010008592B0008A52B0008F12B0008A8
:1000E000E7010008E7010008E7010008E701000850
:1000F000E7010008E7010008E7010008E701000840
:10010000E7010008E7010008E7010008E70100082F
:10011000E7010008952A0008E7010008E701000848
:10012000E7010008E7010008E7010008E70100080F
:1001300000F002F800F03AF80AA090E8000C8244BF
:100140008344AAF10107DA4501D100F02FF8AFF29C
:10015000090EBAE80F0013F0010F18BFFB1A43F0A5
:1001600001031847247A0000447A0000103A24BFA3
:1001700078C878C1FAD8520724BF30C830C144BF0C
:1001800004680C607047000000230024002500264E
:10019000103A28BF78C1FBD8520728BF30C148BFEA
:1001A0000B6070471FB51FBD10B510BD00F046F8BD
:1001B0001146FFF7F7FF02F02BFE00F064F803B4DE
:1001C000FFF7F2FF03BC02F08CFD000009488047F6
:1001D00009480047FEE7FEE7FEE7FEE7FEE7FEE729
:1001E000FEE7FEE7FEE7FEE704480549054A064B41
:1001F00070470000E51F000831010008900400204E
:10020000900A00209006002090060020704770475A
:1002100070477047704710B500F008F8006810BDCF
:1002200010B5044600F002F8046010BD00487047A5
:100230002C040020004870472C0400207546FFF76E
:10024000F9FFAE4605006946534620F00700854693
:1002500018B020B5FFF7C8FFBDE820404FF00006FA
:100260004FF000074FF000084FF0000B21F007019E
:10027000AC46ACE8C009ACE8C009ACE8C009ACE8E1
:10028000C0098D46704710B50446AFF30080204684
:10029000BDE81040FFF793BF0146C86C80B27047BD
:1002A0000246002013680B400BB1012000E0002043
:1002B0007047F0B504460D4600200021092D11DDE0
:1002C000E068A5F10A0606EB4607072606FA07F1DD
:1002D0008843A5F10A0606EB460603FA06F1084331
:1002E000E0600CE0206905EB4507072606FA07F1F8
:1002F000884305EB450603FA06F108432061072A07
:100300000FDA606B561E06EB86071F2606FA07F10A
:100310008843561E06EB860605FA06F1084360631D
:1003200022E00D2A0FDA206BD61F06EB86071F2668
:1003300006FA07F18843D61F06EB860605FA06F192
:100340000843206310E0E06AA2F10D0606EB860781
:100350001F2606FA07F18843A2F10D0606EB860672
:1003600005FA06F10843E062F0BD21B1826842F46B
:10037000A002826003E0826822F4A00282607047DB
:1003800010B54FF40051104800F0CCF968B180214D
:100390000E4800F0D2F908210B4800F0CCF94FF4D8
:1003A0008041094800F0C7F90CE08021074800F0BF
:1003B000C2F90821044800F0C0F94FF48041024816
:1003C00000F0BBF910BD000000100140000C01401E
:1003D00010B501F079F800F03BFC01F0DBF8FFF715
:1003E000CFFF00F059F800F051FD02F0C1F900F024
:1003F00063FC10BD00BFFEE770472DE9F0470646DD
:100400000F46904699460025444641E07A1B91B23A
:10041000321B90B24A4600F0B3FC7A1B91B23219FB
:1004200090B24A4600F0ACFC3A1991B2721B90B2FD
:100430004A4600F0A5FC3A1B91B2721B90B24A46A4
:1004400000F09EFC7A1991B2321990B24A4600F03F
:1004500097FC3A1B91B2721990B24A4600F090FC98
:100460003A1991B2721990B24A4600F089FC7A1991
:1004700091B2321B90B24A4600F082FC6D1C05FB23
:1004800005F004FB040108FB08F0814200DD641E56
:10049000A542BBDDBDE8F08708B50121082001F0C9
:1004A00021F90220ADF8000010208DF80300032090
:1004B0008DF802006946084800F060F801200749FD
:1004C000086001F0ADFA002001F01EFB00F032F8E8
:1004D0000349088008BD0000000C014084812142CE
:1004E0006A0000202DE9F04106460C461746002020
:1004F0000F490860032001F0EBFAC4F3074001F054
:10050000E7FAC4F3072001F0E3FAE0B201F0E0FA01
:10051000002505E0FF2001F0DBFA7055681C85B26C
:10052000BD42F7DB012002490860BDE8F081000010
:100530008481214210B5002400200E4908609020DB
:1005400001F0C6FA002001F0C3FA002001F0C0FA61
:10055000002001F0BDFAFF2001F0BAFA44EA0024BD
:10056000FF2001F0B5FA044301200349C1F88401DA
:10057000204610BD84812142008021422DE9F041B6
:10058000024600250026002000230024002791F8C1
:1005900003C00CF00F0591F803C00CF0100CBCF177
:1005A000000F03D091F802C04CEA050591F800C095
:1005B000BCF1000F31D0146800202BE04FF0010C8B
:1005C0000CFA00F3B1F800C00CEA03069E4220D1F9
:1005D00083004FF00F0C0CFA03F7BC4305FA03FC41
:1005E0004CEA040491F803C0BCF1280F06D14FF087
:1005F000010C0CFA00FCC2F814C00AE091F803C028
:10060000BCF1480F05D14FF0010C0CFA00FCC2F808
:1006100010C0401C0828D1D31460B1F800C0BCF150
:10062000FF0F34DD546800202EE000F1080C4FF07D
:10063000010808FA0CF3B1F800C00CEA03069E4268
:1006400021D183004FF00F0C0CFA03F7BC4305FADD
:1006500003FC4CEA040491F803C0BCF1280F05D157
:1006600000F1080C08FA0CF8C2F8148091F803C0E5
:10067000BCF1480F07D100F1080C4FF0010808FA4F
:100680000CF8C2F81080401C0828CED35460BDE896
:10069000F0810000F0B50A46002300240021002567
:1006A00000F00046B6F1004F02D11D4EF16901E0A5
:1006B0001B4E7168C0F3034583B200F44016B6F5D3
:1006C000401F08D121F07061154E766826F07066E3
:1006D000134F7E6012E000F48016B6F5801F06D13D
:1006E000032606FA05F4A14341F0706106E0460DC9
:1006F000360103FA06F6B14341F0706122B1460DAE
:10070000360103FA06F6314300F00046B6F1004F19
:1007100002D1034EF16101E0014E7160F0BD0000B5
:10072000000001400246002093680B400BB10120FD
:1007300000E0002070474161704701617047000090
:1007400010B504460723012221460948FFF7B1FDF1
:1007500001210748FFF709FE00BF02210448FFF707
:100760009FFD0028F9D00248FFF796FD10BD00005C
:10077000002401402DE9F04107460C4600250026E3
:1007800008E03846FFF7DCFF0544052002F0D4FA04
:10079000701CC6B2A642F4DBB5FBF4F080B2BDE833
:1007A000F08100002DE9F047012001F0F5FB102059
:1007B00001F0F2FB00F0C6FE0F480478407800EB31
:1007C0000424204603F0DAFB824603F04BFA074686
:1007D0004FF03332094B02F055FD054602F06CFC38
:1007E000074908600846006803F08CFB81461FFA41
:1007F00089F0BDE8F08700002C0000203333F33F80
:10080000300000202DE9F05F82460F461446204656
:10081000E21704EB5272D2102146E31704EB537334
:10082000DB10A4EBC3030BB1012300E000231A4447
:10083000624302F0FF099AF800600AF10100824663
:100840000578812E05DB402D03DBFF2D01D0FF2E27
:100850000DD14FF0000B06E0002007F8010B0BF163
:10086000010000F0FF0BCB45F6DBBDE8F09F7F2DCC
:1008700003DAA5F14000C5B202E0A5F14100C5B21E
:10088000A6F18100C6B2BE2000FB065000FB09F8AD
:100890000C2C04D0102C0CD0182C1ED113E01048B6
:1008A000D0F8090000EB08014A463846FFF71AFE67
:1008B00013E00B48D0F8110000EB08014A46384617
:1008C000FFF710FE09E00648D0F8190000EB080118
:1008D0004A463846FFF706FE00BF00BF00BFC4E728
:1008E000F40000202DE9F84302226946012000F0BF
:1008F0001DF89DF801109DF8002041EA022002F049
:1009000046FE06460022074B02F0BCFC04460022CD
:10091000054B02F0A3FE804602F00CFE80B2BDE85B
:10092000F88300000000F0400088C34070B5064620
:100930000C46154600F006F918B900F02BF9002016
:1009400070BD802000F0C8F800F044F918B900F03C
:1009500021F90020F4E7002000F0BEF800F03AF999
:1009600018B900F017F90020EAE700F013F90A209F
:1009700002F0E2F900F0E6F818B900F00BF90020F7
:10098000DEE70A2002F0D8F9812000F0A5F800F097
:1009900021F918B900F0FEF80020D1E70BE000F0D3
:1009A00047F82070641C1DB9012000F071F802E0C6
:1009B000002000F06DF8281EA5F10101CDB2EED1A6
:1009C00000F0E8F80120BBE72DE9FE4F022202A962
:1009D0000020FFF7ABFF9DF809109DF8082041EAC1
:1009E000022002F0D4FD804600220C4B02F04AFCAB
:1009F000064600220A4B02F031FE04460022094B53
:100A000003F046F882460022074B02F027FECDE9AC
:100A1000000102F08FFD80B2BDE8FE8F0000F040C3
:100A200000A06440000044400000594000BFFEE7C1
:100A300070B5002400F04AFF4FF400711248FFF730
:100A40007CFE052002F04FF9002518E06006040E38
:100A50004FF480710C48FFF770FE0C48006808B135
:100A600044F00104052002F03EF94FF4807106487D
:100A7000FFF761FE052002F036F9681CC5B2082DAB
:100A8000E4DB204670BD0000000C014024812142BF
:100A900010B5044600F02CFF012C04D161020D4872
:100AA000FFF74BFE04E04FF400710A48FFF743FEE6
:100AB0004FF480710748FFF740FE052002F013F95C
:100AC0004FF480710348FFF736FE052002F00BF962
:100AD00010BD0000000C014070B5044600F008FF96
:100AE0004FF480711648FFF726FE002521E004F040
:100AF000800028B14FF400711148FFF71EFE04E09A
:100B00004FF400710E48FFF716FE4FF480710C4849
:100B1000FFF713FE052002F0E6F84FF48071084855
:100B2000FFF709FE052002F0DEF86006040E681CDF
:100B3000C5B2082DDBDB0A2002F0D5F870BD00003D
:100B4000000C014010B500F0D3FE4FF400711048C6
:100B5000FFF7F3FD052002F0C6F84FF480710C4852
:100B6000FFF7EBFD052002F0BEF84FF400710848D6
:100B7000FFF7E1FD052002F0B6F84FF4807104485C
:100B8000FFF7D9FD052002F0AEF8012010BD0000EE
:100B9000000C014010B500F0ABFE4FF400710C48A2
:100BA000FFF7C9FD4FF480710948FFF7C4FD052028
:100BB00002F099F84FF480710548FFF7BEFD05205B
:100BC00002F091F84FF400710148FFF7B6FD10BD37
:100BD000000C014010B500F079FE00244FF40071C4
:100BE0001948FFF7AAFD012002F0CCF84FF48071FC
:100BF0001548FFF7A2FD012002F0C4F805E0601CD3
:100C000084B2B4F5FA7F00D103E0104800680028F0
:100C1000F5D100BF0D48006830B14FF480710A482B
:100C2000FFF789FD002010BD052002F05CF84FF4AD
:100C300080710548FFF77FFD052002F054F800F0B1
:100C400057FE0120EFE70000000C01402481214203
:100C500008B50121102000F045FD4FF48060ADF88B
:100C6000000028208DF8030003208DF8020069465B
:100C70000148FFF783FC08BD001001402DE9F04159
:100C800007460C4615461E462A2000F0E1FB384672
:100C900000F0CEFB284600F0CBFB2B2000F0D8FB69
:100CA000204600F0C5FB304600F0C2FB2C2000F0CF
:100CB000CFFBBDE8F081000008B5054800884FF47F
:100CC000A073F02200210090084600F067F808BDEC
:100CD000360000202DE9FF4F85B081468A4600206E
:100CE000039083460798A0EB09050898A0EB0A0635
:100CF000CDF80890CDF804A0002D01DD012705E016
:100D00000DB9002702E04FF0FF376D42002E02DDE3
:100D10004FF0010806E016B94FF0000802E04FF06E
:100D2000FF387642B54201DD2C4600E03446002013
:100D300004901EE0019A91B2029A90B2129A00F0C9
:100D40001FF8039828440390B3440398A04205DD9C
:100D50000398001B0390029838440290A34504DDD9
:100D6000ABEB040B0198404401900498401C80B206
:100D70000490611C04988842DCDB09B0BDE8F08F68
:100D800070B504460D4616462B4622462946204697
:100D9000FFF774FF304600F04BFB70BD2DE9F047C4
:100DA00006460F4614461D46DDF820A0681E83B295
:100DB000601E82B239463046FFF760FFB8460EE04B
:100DC000B14606E0504600F033FB09F101001FFA7E
:100DD00080F9A145F6DB08F101001FFA80F8A8456B
:100DE000EEDBBDE8F087000008B501211C2000F013
:100DF00079FC48F2A000ADF8000010208DF8030047
:100E000003208DF8020069461D48FFF7B7FB48F242
:100E1000A0011B48FFF791FC3020ADF80000102026
:100E20008DF8030003208DF8020069461548FFF78E
:100E3000A5FB30211348FFF780FC43F20100ADF819
:100E4000000010208DF8030003208DF80200694691
:100E50000D48FFF793FB43F201010B48FFF76DFCD0
:100E60004FF48040ADF8000028208DF803000320E7
:100E70008DF8020069460448FFF780FB08BD0000BA
:100E80000008014000100140000C014010B5FFF7C0
:100E9000ABFF00F03FFD01218548FFF74CFC6420CB
:100EA00001F04AFF01218248FFF747FC642001F06E
:100EB00043FF4FF400417F48FFF73FFC642001F0FF
:100EC0003BFF112000F0C4FA782001F035FFCF205D
:100ED00000F0BEFA002000F0B4FAD92000F0B1FA18
:100EE000302000F0AEFAED2000F0B2FA642000F0FD
:100EF000A8FA032000F0A5FA122000F0A2FA81203F
:100F000000F09FFAE82000F0A3FA852000F099FA9B
:100F1000102000F096FA782000F093FACB2000F031
:100F200097FA392000F08DFA2C2000F08AFA002080
:100F300000F087FA342000F084FA022000F081FAF1
:100F4000F72000F085FA202000F07BFAEA2000F07C
:100F50007FFA002000F075FA002000F072FAC0203D
:100F600000F076FA212000F06CFAC12000F070FA4F
:100F7000122000F066FAC52000F06AFA322000F074
:100F800060FA3C2000F05DFAC72000F061FAC12051
:100F900000F057FA362000F05BFA082000F051FA12
:100FA0003A2000F055FA552000F04BFAB12000F03D
:100FB0004FFA002000F045FA182000F042FAB6205F
:100FC00000F046FA0A2000F03CFAA22000F039FABC
:100FD000F22000F03DFA002000F033FA262000F065
:100FE00037FA012000F02DFAE02000F031FA0F204E
:100FF00000F027FA202000F024FA1E2000F021FA49
:10100000092000F01EFA122000F01BFA0B2000F05D
:1010100018FA502000F015FABA2000F012FA442015
:1010200000F00FFA092000F00CFA142000F009FA81
:10103000052000F006FA232000F003FA212000F03A
:1010400000FA002000F0FDF9E12000F001FA002094
:1010500000F0F7F9192000F0F4F9192000F0F1F987
:10106000002000F0EEF9122000F0EBF9072000F06C
:10107000E8F92D2000F0E5F9282000F0E2F93F2002
:1010800000F0DFF9022000F0DCF90A2000F0D9F9C5
:10109000082000F0D6F9252000F0D3F92D2000F02B
:1010A000D0F90F2000F0CDF9292000F0D1F910BDC2
:1010B000000C0140000801402DE9FF5F80468A4690
:1010C00017469B460F9D00200290CDF800802846D1
:1010D00005EBD071C1F347042046E21704EB5272CE
:1010E000D2102146E31704EB5373DB10A4EBC303C8
:1010F0000BB1012300E000231A446A4392B201922B
:10110000A7F12000C7B20AEB0500401E83B208EB2E
:101110000400401E82B251464046FFF7AFFD002654
:1011200069E00C2D07D107EB4700354901EB800042
:10113000805D03901BE0102D05D1324800EB0710B5
:10114000805D039013E0182D07D107EB47002E496F
:1011500001EB0010805D039009E0202D05D12B48A4
:1011600000EB8710805D039001E0BDE8FF9F4FF02A
:1011700000093AE01098C8B9012000FA09F0039973
:10118000084018B1584600F053F902E00E9800F0FC
:101190004FF90298401CC0B20290029890FBF4F103
:1011A00004FB1100E8B90020029021E0012000FAC0
:1011B00009F00399084020B15A4651464046FFF7CE
:1011C000DFFD08F101001FFA80F80098A8EB00008D
:1011D000A04206D1DDF800800AF101001FFA80FA72
:1011E00006E009F1010000F0FF09B9F1080FC1DBC9
:1011F00000BF701C86B20198864292DB00BFB4E744
:101200006A420008DE460008CE4C00089E5E0008D8
:101210002DE9F05F0746884616461C46DDF8289003
:10122000002508EB0400401E83B2B819401E82B2AC
:1012300041463846FFF722FDAA4624E04FF6FF70EC
:1012400000EA440249461248FFF74CF909EB440909
:101250004FF0000B10E00E4911F8150000F0F1F806
:10126000012101EB45010A4A505C00F0EAF86D1CCF
:101270000BF101001FFA80FBA345ECDB00250AF10E
:1012800001001FFA80FAB245D8DBBDE8F09F0000EC
:101290003E0100202DE9FF4F85B0074693461D46CD
:1012A000DDE91386304606EBD071C1F3470A2949C0
:1012B000584602F08FFE039002F040FE80B2049088
:1012C000002441E0281B401EC1B20A2001F096FE16
:1012D0000499B1FBF0F00A21B0FBF1F201FB120915
:1012E000A81EA04210D10020A91E01FB0A71CDE961
:1012F0000086029088B22E22129B0699FFF7DCFE30
:10130000601CC4B2681CC5B2B9F1000F0ED0002039
:1013100009F13001CAB204FB0A71CDE900860290DE
:1013200088B2129B0699FFF7C7FE0BE0002004FB72
:101330000A71CDE90086029088B23022129B06998C
:10134000FFF7BAFE601CC4B2AC42BBDB09B0BDE81B
:10135000F08F00000000C8422DE9FF4F85B007461E
:1013600091461D46DDE913A600200490304606EBA9
:10137000D071C1F3470B002434E0281B401EC1B2DA
:101380000A2001F03BFEB9FBF0F00A21B0FBF1F2BC
:1013900001FB12080498A0B9681EA04211DDB8F143
:1013A000000F0CD1002004FB0B71CDE900A60290C8
:1013B00088B22022129B0699FFF77EFE10E00120E2
:1013C0000490002008F13001CAB204FB0B71CDE992
:1013D00000A6029088B2129B0699FFF76DFE00BF2F
:1013E000601CC4B2AC42C8DB09B0BDE8F08F2DE987
:1013F000FE4F06460F4614469846DDE90D5ADDF8C5
:10140000309010E0CDE9015ACDF8009022784346A3
:1014100039463046FFF750FE284605EBD07106EB03
:1014200061018EB2641C20780028EBD1BDE8FE8FEC
:1014300010B50446201200F01BF8E0B200F018F8D6
:1014400010BD10B50446204600F012F810BD000093
:1014500010B5044610210548FFF76DF9204600F04D
:1014600007F810210148FFF768F910BD001001408E
:1014700070B5044620211248FFF75DF9002517E0FA
:1014800080211048FFF757F904F0800020B1202197
:101490000C48FFF752F903E020210A48FFF74BF907
:1014A00080210848FFF749F96006040E681CC5B2A0
:1014B000082DE5DB20210248FFF73FF970BD000051
:1014C000001001400008014008B50121102000F083
:1014D00009F94FF48070ADF8000010208DF803007A
:1014E00003208DF8020069460448FFF747F84FF4DF
:1014F00080710248FFF71FF908BD0000001001408D
:1015000010B500240CE029220B490C48FEF7EAFF35
:101510000A480078BB2800D104E0142001F00CFC3C
:101520000A2CF0DB00BF05480078BB2801D0012061
:1015300010BD0020FCE70000017031001501002003
:1015400000BFFEE710B5FFF7FDFAB920FFF7C4FAB8
:10155000FFF740FB002408E0FFF76AFA0549085549
:101560000020FFF795FA601CC4B2032CF4DBFFF7F0
:1015700011FB10BD2C000020704700000249014300
:10158000024A1160704700000000FA050CED00E00F
:101590007047000008B50121182000F0A3F8402092
:1015A000ADF8000028208DF8030003208DF802001C
:1015B00069461548FEF7E2FF8020ADF800001020D4
:1015C0008DF8030069461048FEF7D8FF0820ADF8F3
:1015D000000069460D48FEF7D1FF4FF48040ADF89A
:1015E000000010208DF8030069460848FEF7C6FF8A
:1015F0004FF40050ADF8000028208DF80300694634
:101600000248FEF7BBFF08BD000C0140001001407E
:101610002DE9F04108221D491D4801F04FFBFFF75D
:10162000D3F91C490884FFF75DF91A494884FFF78C
:10163000B9F8184908850A210420FFF79BF81649D4
:1016400008800846008801F0B9FF0646134A144B8B
:1016500002F004F8044601F02FFD0E49C8620A2189
:101660000120FFF787F80C4908800846008801F040
:10167000A5FF0646094A0A4B01F0F0FF044601F0B7
:101680001BFD04490863BDE8F08100006C000020E8
:1016900000440040C00000207E0000202D431CEBD1
:1016A000E2364A3F29B1064AD2690243044BDA6165
:1016B00004E0034AD2698243014BDA6170470000BB
:1016C0000010024029B1064A12690243044B1A6114
:1016D00004E0034A12698243014B1A61704700001B
:1016E0000010024029B1064A92690243044B9A61F4
:1016F00004E0034A92698243014B9A6170470000FB
:101700000010024010B56848008800F4004000282E
:101710007ED0002064490880002240F225516348B1
:1017200001F0A2FA62480079624948706048407945
:10173000087008460088604908805D4880795D49E6
:1017400048705B48C0790870084600885A4948804C
:101750005748007A574948705548407A08700846FB
:101760000088554988805248807A524948705048CC
:10177000C07A0870084600884F49C8804C48007BF2
:101780004C4948704A48407B0870084600884A49DE
:1017900008814748807B474948704548C07B0870AE
:1017A00008460088444948814148007C41494870C6
:1017B0003F48407C0870084600883F4988813C4883
:1017C000807C3C4948703A48C07C087008460088D4
:1017D0003949C8813648007D364948703448407DD3
:1017E000087008460088344908823148807D3149B4
:1017F00048702F48C07D0870084600882E494882EE
:101800002B48007E2B4948702948407E087000E034
:1018100014E008460088284988822548807E2549AA
:1018200048702348C07E0870084600882249C88254
:101830001F48007F08761E48407F48761F48008872
:1018400000F40040E0B100201C4908801C480079E9
:10185000184948701A4840790870084600881649A7
:10186000488317488079134948701548C079087033
:1018700008460188104881831148C1780E48C18309
:101880001048008800F4004068B100200D4908802D
:101890000D48C078074948700B4800790870084621
:1018A00000880549C88410BD180000200050004081
:1018B0009400002080000020C000002028000020AC
:1018C000B40000201A0000201C00002008B54FF4CE
:1018D0000070ADF8000028208DF8030003208DF87B
:1018E000020069460148FEF749FE08BD000C0140B0
:1018F00008B54FF40070ADF8000010208DF803001B
:1019000003208DF8020069460148FEF737FE08BD46
:10191000000C014000B587B001218803FFF7C2FE2B
:1019200001210820FFF7DEFE4FF46040ADF81800FB
:1019300003208DF81A0018208DF81B0006A91748FF
:10194000FEF71CFE4FF460411448FEF7F6FE00203F
:10195000ADF804004FF48270ADF806000020ADF839
:1019600008000220ADF80A000120ADF80C0040028A
:10197000ADF80E000820ADF810000020ADF8120000
:101980000720ADF8140001A9054800F0EBF801218B
:10199000034800F0CDF807B000BD0000000C014086
:1019A0000038004070B50546002405E0601CC4B254
:1019B000C82C01DD002070BD02210E4800F0C4F8E3
:1019C0000028F3D029460B4800F0CAF8002405E0AF
:1019D000601CC4B2C82C01DD0020ECE701210548E1
:1019E00000F0B2F80028F3D0024800F0B6F8C0B218
:1019F000E1E700000038004010B5044607480088C1
:101A00004FF6C77108400549088008460088204302
:101A100008800121014800F08BF810BD003800401B
:101A200000B587B001210920FFF75CFE0121C80342
:101A3000FFF738FE01212348FEF72CFE3820ADF8D1
:101A4000180018208DF81B0003208DF81A0006A935
:101A50001D48FEF793FD38211B48FEF76EFE01215D
:101A6000C803FFF72FFE00214FF40040FFF72AFEC6
:101A70000020ADF804004FF48270ADF8060000209D
:101A8000ADF808000220ADF80A000120ADF80C0006
:101A90004002ADF80E003820ADF810000020ADF87F
:101AA00012000720ADF8140001A9084800F05AF808
:101AB0000121064800F03CF8FF2000F009F807B0CB
:101AC00000BD000000023000000C0140003C00405E
:101AD00010B5044600BF02210A4800F035F800287E
:101AE000F9D02146074800F03BF800BF0121054826
:101AF00000F02AF80028F9D0024800F02EF8C0B211
:101B000010BD0000003C004010B5044607480088A6
:101B10004FF6C771084005490880084600882043F1
:101B200008800121014800F003F810BD003C00408E
:101B300021B1028842F04002028004E002884FF6A0
:101B4000BF731A40028070470246002013890B4081
:101B50000BB1012000E000207047014688897047E2
:101B60008181704710B50022028802F441520B882F
:101B70004C8823438C882343CC8823430C892343FC
:101B80004C8923438C892343CC8923431A43028005
:101B9000838B4FF2FF74234083830B8A038210BD33
:101BA000704710B500F002F810BD00000CB5002021
:101BB000019000903348006840F48030314908605B
:101BC00000BF3048006800F4003000900198401CCD
:101BD0000190009818B90198B0F5A06FF1D129488B
:101BE000006800F4003010B10120009001E00020F6
:101BF00000900098012843D12348006840F010006D
:101C0000214908600846006820F003000860084683
:101C1000006840F0020008601A48406819494860AE
:101C20000846406848600846406840F48060486064
:101C30000846406820F47C1048600846406840F43C
:101C4000E81048600846006840F08070086000BFF7
:101C50000C48006800F000700028F9D0094840687E
:101C600020F00300074948600846406840F0020041
:101C7000486000BF0348406800F00C000828F9D114
:101C80000CBD000000100240002002402DE9FF4F73
:101C900093B007460D461C46AA462046E21704EBC1
:101CA0005272D2102146E31704EB5373DB10A4EBFE
:101CB000C3030BB1012300E000231A44624302F086
:101CC000FF0B0C2C06D0102C04D0182C02D017B00F
:101CD000BDE8F08F224601A91598FEF793FD002676
:101CE0002FE001A810F806804FF0000923E008F06B
:101CF000800030B11548028829463846FFF740F881
:101D000007E0209828B91248028829463846FFF78C
:101D100037F84FEA48604FEA1068681C85B2A5EBB7
:101D20000A00A04203D15546781C87B206E009F1AB
:101D3000010000F0FF09B9F1080FD8DB00BF701CEB
:101D4000C6B25E45CDDB00BFC1E700003400002015
:101D5000360000202DE9F04F85B007460E4691462B
:101D60009A46DDE90F4B0E9DB8460496002003907D
:101D70004FE00398002831D12878802802DD012027
:101D8000039046E004EBD47108EB0902A2EB610179
:101D9000B94202DA301986B2474604985044001B13
:101DA000B04200DA38E028780D2804D1301986B224
:101DB00047466D1C0AE01A4800888DE811082A7809
:101DC0001848038831463846FFF776F96D1C2046DF
:101DD00004EBD07107EB61018FB21AE00020039091
:101DE00008EB0900001BB84202DA301986B24746F8
:101DF00004985044001BB04200DA0DE023462A4606
:101E000031463846CDF800B0FFF740FFAD1C381919
:101E100087B228780028ACD100BF05B0BDE8F08FAC
:101E200036000020340000202DE9FE4300244FF44A
:101E30007840484908804FF6E07047490880002004
:101E4000182146A20B46CDE900210290C8220A21A2
:101E50000846FFF77FFF4FF6FF703F4908800020DC
:101E600010214FF6FF724FF47843CDE90021029024
:101E70003DA22821FFF7BBFA10204FF6FF714FF467
:101E800078420323CDE900210290F022282130205E
:101E9000FFF762FA002010214FF6FF724FF47843EB
:101EA000CDE90021029032A228215020FFF79FFAAD
:101EB00010204FF6FF714FF478420323CDE9002143
:101EC00002904FF4A07228218020FFF745FA0020ED
:101ED00010214FF6FF724FF47843CDE900210290B4
:101EE00023A228215020FFF782FA002010214FF66C
:101EF000FF724FF47843CDE9002102901EA24621E3
:101F0000FFF775FA10204FF6FF714FF47842042363
:101F1000CDE900210290224646218020FFF7BAF940
:101F2000204601F09FFE0546184A194B01F0F6F8CD
:101F3000074601F0C1F804461648D0F801004FF4F6
:101F4000A073F022002100900846FFF761F9BDE878
:101F5000FE8300003400002036000020D6D0BEB042
:101F6000D4B0B5E7D7D300004C43445F573A0000E4
:101F70004C43445F483A0000496E63726561736583
:101F8000696E67204E756E3A00000000295C8FC2B2
:101F9000F528BC3F1501002010B50446FEF7D2FD20
:101FA000B820FEF799FDFEF715FE2046FEF794FDDA
:101FB000FEF710FEFEF7EEFD10BD042808D14FF02D
:101FC000E021096941F004014FF0E022116107E0CE
:101FD0004FF0E021096921F004014FF0E022116186
:101FE0007047704710B51348006840F00100114970
:101FF000086008464068104908400E494860084695
:1020000000680E4908400B4908600846006820F443
:10201000802008600846406820F4FE0048604FF4C5
:102020001F008860FFF7BDFD4FF0006004490860A5
:1020300010BD0000001002400000FFF8FFFFF6FE98
:1020400008ED00E02DE9F04F89B04FF0000800BF27
:102050004FF6FF704FF4A073F02200210090084665
:10206000FEF79CFE002010214FF6FF724FF47843DC
:10207000CDE900210290FCA228210520FFF7B7F945
:102080004FF478421421084600F036FB0020FE4948
:1020900081F820004862F2E2FB484168012088474D
:1020A000F94890F8200000F0C00040287AD1F648A6
:1020B00090F8200020F04000F34981F82000084605
:1020C000808904A921F82800EF48C08A01EB880123
:1020D000488008F1010000F0FF08B8F1010F09D0B5
:1020E000B8F1020F13D0B8F1030F1ED0B8F1040FEE
:1020F0000CD129E04FF6FF721421084600F0FCFADB
:102100004FF478421421DC2000F0F6FAB5E24FF6E5
:10211000FF721421DC2000F0EFFA4FF478424FF404
:102120009671142000F0E8FAA7E24FF6FF724FF420
:102130009671142000F0E0FA4FF478424FF4967153
:10214000DC2000F0D9FA98E2BDF81010BDF8142098
:10215000881A002801DB014600E041420C46BDF828
:102160001220BDF81610501A002801DB014600E0CD
:1021700041420D4664436D43601901F01FFACDE9F9
:10218000000100F046FFCDE9020101F0D3F91FFA8A
:1021900080F9BDF81810BDF81C20881A002802DB51
:1021A000014601E06AE241420C46BDF81A20BDF842
:1021B0001E10501A002801DB014600E041420D4686
:1021C00064436D43601901F0F9F9CDE9000100F0B5
:1021D00020FFCDE9020101F0ADF91FFA80FA504667
:1021E00001F0E4FE0390484601F0E0FE02900399FE
:1021F00001F0C6FD834601F035FD06460F464FF05F
:102200006632A24B3046394601F0ECF90CD3A04AB5
:10221000A04B3046394601F01FFB05D3B9F1000F42
:1022200002D0BAF1000F2FD14FF000084FF6FF7225
:102230004FF49671DC2000F05FFA4FF478421421DD
:10224000084600F059FA002010214FF6FF724FF4B3
:102250007843CDE9002102908FA228210520FFF7C5
:10226000C6F8002010214FF6FF724FF47843CDE9F5
:102270000021029090A23C210520FFF7B8F84FF40E
:102280007A7000F059FDFAE1BDF81010BDF8182081
:10229000881A002801DB014600E041420C46BDF8E7
:1022A0001220BDF81A10501A002801DB014600E088
:1022B00041420D4664436D43601901F07FF9CDE959
:1022C000000100F0A6FECDE9020101F033F91FFA8A
:1022D00080F9BDF81410BDF81C20881A002801DB15
:1022E000014600E041420C46BDF81620BDF81E1024
:1022F000501A002801DB014600E041420D466443CC
:102300006D43601901F05AF9CDE9000100F081FE3A
:10231000CDE9020101F00EF91FFA80FA504601F0F2
:1023200045FE0390484601F041FE0290039901F0FA
:1023300027FD834601F096FC06460F464FF06632B5
:10234000524B3046394601F04DF906D3504A514BB5
:102350003046394601F080FA2FD24FF000084FF690
:10236000FF724FF49671DC2000F0C6F94FF478420A
:102370001421084600F0C0F9002010214FF6FF722A
:102380004FF47843CDE90021029043A22821052093
:10239000FFF72DF8002010214FF6FF724FF478431D
:1023A000CDE90021029044A23C210520FFF71FF84F
:1023B0004FF47A7000F0C0FC61E1BDF81410BDF874
:1023C0001820881A002801DB014600E041420C4633
:1023D000BDF81620BDF81A10501A002801DB01467E
:1023E00000E041420D4664436D43601901F0E6F898
:1023F000CDE9000100F00DFECDE9020101F09AF8EF
:102400001FFA80F9BDF81010BDF81C20881A0028AA
:1024100001DB014600E041420C46BDF81220BDF848
:102420001E10501A002801DB014600E041420D4613
:1024300064436D43601901F0C1F8CDE9000100F07B
:10244000E8FDCDE9020101F075F81FFA80FA504667
:1024500001F0ACFD0390484601F0A8FD02900399FD
:1024600001F08EFC834637E0506C65617365206136
:10247000646A7573746D656E742074686520736327
:102480007265656E2E000000380000206666EE3F23
:10249000CDCCCCCCCCCCF03F546F7563682041647C
:1024A0006A7573742046696C6564212020202020A1
:1024B0002020202020000000506C656173652041C1
:1024C000646A75737420416761696E212020202041
:1024D000202020202000000001F0C4FB06460F460B
:1024E0004FF06632664B3046394601F07BF806D332
:1024F000644A654B3046394601F0AEF931D24FF0AF
:1025000000084FF6FF724FF49671DC2000F0F4F8EB
:102510004FF478421421084600F0EEF80020102114
:102520004FF6FF724FF47843CDE900210290AFF2ED
:10253000980228210520FEF75AFF002010214FF6AF
:10254000FF724FF47843CDE900210290AFF2980278
:102550003C210520FEF74BFF4FF47A7000F0ECFBB6
:102560008DE0BDF81410BDF81020881A01F006FDAA
:1025700083465946454801F003FC45494862BDF889
:102580001410BDF81020881801F0F8FC01904048A4
:10259000416A019801F01EFD83463E4901F0E6FDC7
:1025A0004FF08041029001F0EBFB039001F0AAFC98
:1025B00000B237498885BDF81A10BDF81220881A74
:1025C00001F0DCFC83465946334801F0D9FB304921
:1025D0008862BDF81A10BDF81220881801F0CEFCF0
:1025E00001902B48816A019801F0F4FC2B4902907C
:1025F00001F0BCFD83464FF0804101F0C1FB039028
:1026000001F080FC00B22249C8854FF6FF724FF4FA
:102610009671DC2000F070F8002010214FF6FF7258
:102620004FF47843CDE9002102901DA22821052016
:10263000FEF7DDFE002010214FF6FF724FF47843C5
:10264000CDE9002102901EA23C210520FEF7CFFE1D
:102650004FF47A7000F070FB002010214FF6FF72EB
:102660004FF47843CDE9002102901DA228210520D6
:10267000FEF7BDFE09B0BDE8F08F00BF00BF0BE55F
:102680006666EE3FCDCCCCCCCCCCF03F00004843CE
:10269000380000200000704300008C430000A0437D
:1026A000546F7563682053637265656E2041646A78
:1026B000757374204F4B2120202020202000000023
:1026C000202020202020202020202020202020200A
:1026D000202020202020202020202020200000005A
:1026E00020202020202020202020202020202020EA
:1026F0002020202020202000F8B504460D46164654
:1027000004F10D018AB2193988B22B462946009688
:10271000FEF7E0FA05F10D0083B2193881B22246C6
:1027200020460096FEF7D6FA6A1C91B2621C90B25F
:102730003246FEF725FB6A1C91B2621E90B2324609
:10274000FEF71EFB6A1E91B2621C90B23246FEF783
:1027500017FB6A1E91B2621E90B23246FEF710FB62
:102760003346062229462046FDF747FEF8BD000005
:102770000648074948626FF0080088850548886266
:102780006FF00D00C88500207047000009C2053EAB
:1027900038000020942F383E70B5054600240020F4
:1027A000164908601649C1F8BC011449091F0860A0
:1027B000284600F069F9062000F0E4FA00201049EC
:1027C000C1F8B401012000F0DDFA01200B490860D6
:1027D00000F0D8FA00200A49C1F8B401FF20FFF741
:1027E000E1F80402FF20FFF7DDF804432411012083
:1027F0000249091F0860204670BD0000B4812142D3
:10280000008021422DE9FE4380460027002406E097
:102810004046FFF7C1FF2DF81400601C84B2052C60
:10282000F6DB002416E0601C85B20FE03DF81400D2
:102830003DF81510884207DD3DF814603DF815009D
:102840002DF814002DF81560681C85B2052DEDDB00
:10285000601C84B2042CE6DB0027012405E03DF86F
:102860001400384487B2601C84B2042CF7DB0320C8
:1028700097FBF0F086B23046BDE8FE832DE9F041CB
:1028800004460D4607480078FFF7BCFF0646064899
:102890000078FFF7B7FF074626802F800120BDE8AC
:1028A000F081000068000020690000207FB5044628
:1028B0000D462020FFF7A0F802A903A8FFF7DEFFCE
:1028C000064616B9002004B070BD694601A8FFF79E
:1028D000D5FF06460EB90020F5E70820FFF78CF873
:1028E000BDF80400BDF80C10884206DCBDF80C10E1
:1028F000BDF80400323081420CDBBDF80C00BDF89D
:102900000410884236DCBDF80410BDF80C003230EB
:1029100081422FDABDF80000BDF80810884206DCBD
:10292000BDF80810BDF80000323081420CDBBDF864
:102930000800BDF8001088421CDCBDF80010BDF88E
:1029400008003230814215DABDF80C10BDF80420C1
:10295000881800EBD071C1F34F012180BDF8081039
:10296000BDF80020881800EBD071C1F34F01298019
:102970000120A8E70020A6E72DE9F04104464048E1
:102980000068002856D12CB13E49A1F10A00FFF79A
:102990008DFF3DE03B49A1F10A00FFF787FFB8B387
:1029A00038491639B1F92C0001F0E8FA07463549E3
:1029B0001639888901F0FAFA804632481638416A99
:1029C000404601F007FB0646394601F077F9054617
:1029D00001F0B4FA2B4916398881B1F92E0001F0C3
:1029E000CDFA074627491639C88A01F0DFFA804632
:1029F00024481638816A404601F0ECFA064639460A
:102A000001F05CF9054601F099FA1E491639C882B1
:102A10001C48163890F8200000F0800038BBC02019
:102A20001849163981F82000084681898182C18AB7
:102A3000C1831CE01348163890F8200000F0800095
:102A400050B11048163890F8200020F080000D4951
:102A5000163981F820000AE000210A4816388182E0
:102A6000C1834FF6FF70074916398881C88205482F
:102A7000163890F8200000F08000BDE8F0810000DA
:102A8000180122424E00002010B504462046FEF7F1
:102A900089FF10BD10B540F225512C4800F0BAF85E
:102AA000002852D0294800F004F9C4B22848008810
:102AB00000F40040002848D12548008800F47060E8
:102AC00048B1B0F5807F0FD0B0F5407F15D0B0F59C
:102AD000E06F39D11EE01F4804701D48008840F4A3
:102AE00080701B4908802FE01A48447018480088FD
:102AF00040F400701649088026E016488470144897
:102B0000008840F480601249088008460088C01C94
:102B1000088019E00E4800780E490C540C480088D3
:102B2000401C0B4908800846008800F47060B0F52E
:102B3000E06F08D108460078202804D108460088B4
:102B400040F40040088000BF00BF10BD00500040AE
:102B5000180000209400002010B540F225510E48C6
:102B600000F058F8B8B10C4800F0A3F8C4B20B4814
:102B700000780B490C5409480078082806D107480A
:102B8000008840F400400549088004E003480088BC
:102B9000401C0249088010BD003801402800002078
:102BA000B400002010B540F225510E4800F032F874
:102BB000B8B10C4800F07DF8C4B20B4800780B495E
:102BC0000C5409480078082806D10748008840F4CA
:102BD00000400549088004E003480088401C024981
:102BE000088010BD004400401A0000201C00002096
:102BF00010B540F22551064800F00CF830B10448F9
:102C000000F057F8C4B2204600F02AFA10BD0000C8
:102C10000048004070B50246002400230025002033
:102C200040F66A16B14200D100BFC1F3421501F06F
:102C30001F03012606FA03F3012D02D196893340C2
:102C400006E0022D02D1168A334001E0968A334015
:102C50000C12012606FA04F41688344013B10CB1A4
:102C6000012000E0002070BDF0B5034600240026DE
:102C70000025002040F66A17B94200D100BF18466F
:102C8000C1F3421401F01F06012707FA06F5012CD3
:102C900001D10C3004E0022C01D1103000E01430DE
:102CA0001AB107682F43076002E00768AF43076067
:102CB000F0BD01468888C0F30800704710B50B4688
:102CC000002109E000BF048804F04004002CFAD081
:102CD0005C5C84804C1CE1B29142F3DB10BD00BF10
:102CE000FEE700BF704710B50446322000F04AF8F6
:102CF00010BD000010B56FF00400FFF75EF90A4840
:102D000000680A49B0FBF1F00949087008460078EC
:102D100000EB4001C1EBC0104FF6FF7101EAC000AB
:102D20000449088010BD00000000002000127A0055
:102D300014000020160000200146114A12884A4360
:102D40004FF0E0235A6100229A611A46126942F05C
:102D500001021A6100BF4FF0E022106900F0010289
:102D60001AB100F48032002AF5D04FF0E022126947
:102D700022F001024FF0E0231A6100229A617047AD
:102D8000160000200146114A12784A434FF0E02312
:102D90005A6100229A611A46126942F001021A61D0
:102DA00000BF4FF0E022106900F001021AB100F4F8
:102DB0008032002AF5D04FF0E022126922F00102A1
:102DC0004FF0E0231A6100229A617047140000203E
:102DD00010B500240EE0601CC4B2212200210B4873
:102DE000FDF780FB09480078AA2800D104E01420F0
:102DF000FFF7A2FF0A2CEEDB00BF04480078AA28E8
:102E000001D0012010BD0020FCE70000F4000020EC
:102E10001FB5FFF76FFF4FF4A060FEF7AFFBFDF7A4
:102E2000D7FA4FF6FF70ADF80C0001206749086033
:102E30001BE0002010214FF6FF724FF47843CDE9DC
:102E40000021029062A24621FEF7D1FAC820FFF7C6
:102E500073FF4FF6FF705623E622462100901E2096
:102E6000FDF79CFFC820FFF767FFFFF7B1FF0028C1
:102E7000DFD10AE0C820FFF75FFF5448006808B9B7
:102E8000012000E0002051490860FEF739FB0028CE
:102E9000F0D1FEF7C9FF4FF4784053490880012074
:102EA00010214FF6FF724FF47843CDE900210290D4
:102EB0004EA250210A20FEF79AFA4FF47A70FFF7DB
:102EC0003BFF4C48D0F809004FF48A73F0221621DA
:102ED00000900020FEF79CF976E0FEF799FBFEF7E4
:102EE00011FC4548416800208847434890F820007D
:102EF00000F08000002867D00120FFF71DFF3E484A
:102F00008089EF2860DA3C48808901285CDB3A48F8
:102F1000C08AB0F59F7F57DC3748C08A012853DB51
:102F20003548C08A16284FDD3348C08A3E284BDA20
:102F3000314880890A280EDD2F4880893C280ADA2A
:102F40002C48D0F809004FF48A73F0221621009023
:102F50000020FEF75DF92848808950280EDD2648BC
:102F6000808978280ADA2348D0F811004FF48A7350
:102F7000F022162100900020FEF74AF91E488089B1
:102F80008C280EDD1C488089AA280ADA1948D0F856
:102F900019004FF48A73F022162100900020FEF7EA
:102FA00037F915488089BE280EDD13488089E62848
:102FB0000ADA1048D0F821004FF48A73F022162163
:102FC00000900020FEF724F987E70000A0012242CC
:102FD0005468657265206973206E6F20776F726424
:102FE0002073746F636B2100340000205468657295
:102FF00065210000150100203800002010B50246B0
:10300000012000E050430B1EA1F10104E1B2F9D10F
:1030100010BD2DE9F04106460F4600F053FC041E9A
:103020000D4618BF0120284320F00040C0F17F600A
:1030300000F1E040C00F0ED0301C18BF0120384313
:1030400020F00040C0F17F6000F1E040C00F04BFFD
:103050000120FDF7E5F820462946BDE8F081000093
:1030600012490968124A1268891A01291CD01049AC
:1030700009680E4A1268914206D90D4909680B4A3F
:103080001268891A17290FD209490A6809498A4220
:1030900002D31739064A11600549096808700449C6
:1030A0000968491C024A116070470000880000202E
:1030B00084000020F403002021F00042A2F16052BD
:1030C000B2F5801F01F0004328BFD2F17F6C0BD90D
:1030D0005FEA001C43EAC20242EB507018BF70471F
:1030E00028BF20F001007047B2F5801FBCBF184612
:1030F00070474FEA410C1CF5001F02D2084601F050
:1031000030B870B500F054FB00000089FFF7F6BF3F
:103110004FF00040A0F580007047000010B591EA24
:10312000030F48BF83F0004300F1BA84841A71EBA7
:10313000030C05D2121943EB0C03001B61EB0C01CD
:10314000DFF824E14FEA1154A4EB135C1EEA430FAD
:1031500018BF9EEA445F73D023EA0E03DCF1200E11
:1031600021EA045143F4801332D322FA0CFE10EB0F
:103170000E0023FA0CFE41EB0E01CCF1200E03FAF7
:103180000EFE10EB0E0051F10001B1F5801FCCF1E5
:10319000200E32D201EB045112FA0EF2BDE81040BB
:1031A00058BF7047401C38BF5FEA420218BF7047E3
:1031B000002814BF20F0010041F100014FEA410353
:1031C00013F5001F38BF7047A1F1C04100F03EBBAE
:1031D000012A43EB0302ACF1200CDCF11F0E32BFDD
:1031E0004FF0000E23FA0CF310EB030041EB0451F7
:1031F000B4EB115FD0D0A1EB045101F58011490867
:103200005FEA300001EB04510ED350F1000038BFEB
:1032100012FA0EFE08D1BDE81040C9E7401C38BFC5
:103220005FEA4202CAD1C3E7BDE810404FEA41035A
:1032300013F5001F38BF7047A1F1C04100F006BB75
:103240009EEA445F08D011EA5E0FBDE8104004BF5B
:1032500001F0004100207047BDE8104070B500F05B
:10326000A7FA00BF64FBBE3E0000E0FF491058BF54
:10327000C1F140415B1058BFC3F140438B42EFF3B3
:10328000008070472DE9C04130B4DFF8A0C23CEAAD
:10329000111418BF3CEA131400F0EC8081EA030516
:1032A0001CEA111444EAD57418BF1CEA131500F087
:1032B000C780A4EB05044FF0004545EAC12145EA6B
:1032C000C32341EA505143EA525304F17F749942B7
:1032D00004F500344FEAC0204FEAC22208BF9042F2
:1032E00000F09C804FEA13650FF24016765D4FEABE
:1032F000134506FB05F7C7F1807706FB07F74FEA92
:10330000D737A7FB03687642C8F58038A7FB06CEFF
:1033100038BFA8F1010807FB08E64FF0000EA6FB36
:10332000028CE6FB03CEDCF1000CCEF1004E38BF80
:10333000AEF1010EA6FB0C584FF000074FF0000550
:10334000E6FB0E87A1FB08C6A0FB07CE16EB0E0618
:1033500045F10005E1FB076515F1E04E7EBFA4F5E0
:1033600080345FEA46066D4116F1800745F100059D
:103370004FEA17274FEA066647EA0567A6F1DE46D9
:10338000B6F1805F4FEA15251FD9384624F0010CAD
:1033900005EBC471BCF1FE6F01EB0C1102D8F0BC5F
:1033A000BDE8008124425CBF01F5801E9EEAC47F17
:1033B00002D4F0BCBDE80081244238D4F0BCA1F1B5
:1033C000C041BDE8004100F041BA4FEAD22242EAD2
:1033D00043524FEAD323A7FB02864FEAD02040EAAC
:1033E000415007FB03661EEA0E0F4FEAD12105FB91
:1033F000026658BFA6EB0056B6EB00564FEA520ED7
:103400004EEAC37E18EB0E0E56EB530EBDD518EBED
:1034100002085E417F1C55F10005B6E74FF48015A8
:103420004FF000074FF000064FF00008ADE7F0BC8A
:103430004FF0000001F1C04101F00041BDE8008102
:1034400011EA0C1F0CEA131500D00CE013EA0C1F54
:1034500000F025804FF00000F0BC81EA030101F08C
:103460000041BDE80081F0BCBDE8004181EA0301F4
:1034700000F0ECB9F0BCBDE8004170B500F098F97F
:10348000097EFC3E00F007B881EA03014FF000001E
:1034900001F00041704781EA030100F0D7B9F0BCA8
:1034A000BDE800414FF0000021497047FFFDFBF9E6
:1034B000F7F5F4F2F0EEEDEBE9E8E6E4E3E1E0DE67
:1034C000DDDBDAD8D7D5D4D3D1D0CFCDCCCBCAC8D9
:1034D000C7C6C5C4C2C1C0BFBEBDBCBBBAB9B8B700
:1034E000B6B5B4B3B2B1B0AFAEADACABAAA9A8A8F3
:1034F000A7A6A5A4A3A3A2A1A09F9F9E9D9C9C9BC1
:103500009A9999989797969595949393929191906B
:103510008F8F8E8E8D8C8C8B8B8A898988888787FC
:103520008685858484838382828181800000FF0771
:103530000000F87F4FEA1153A3F58063D3F11E0317
:10354000A8BFD3F1200C08DB4FF0004242EAC122B1
:1035500052EA505232FA03F0704709420BD4102B52
:10356000C4BF0020704703F5787CBCF1FF3F05D055
:103570004FF0FF3070474FF00000704770B500F01B
:1035800017F900BF4992248000207047F0E710F03F
:10359000004248BF4042B0FA80F310FA03F10AD06B
:1035A000C3F11D0303F580634FEA415002EB035260
:1035B00002EBD12170474FF000007047B0FA80F362
:1035C00010FA03F10AD0C3F11D0303F580634FEA3B
:1035D00041504FEA035202EBD12170474FF00000F7
:1035E0007047000051EA030C17D41CF5801F58BF28
:1035F000BCF5801F00F10680994218BF704708BFD4
:103600009042704707D711F5801F58BF13F5801FF0
:1036100019D499427047894270471CF5801F08D51C
:10362000BCF5801FF7D58B4218BF704708BF824298
:1036300070474FF4001C1CEB410F38BF1CEB430FCD
:1036400001D28B42704770B500F0B2F89224490065
:103650004FF000514FF08053FFF708BEDFF848C12C
:1036600070B51CEA111E1EBF1CEA13159EEA0C0F52
:1036700095EA0C0F00F06F8081EA030423EA4C13F3
:103680004EEAD47E21EA4C1141F4801143F48013B8
:10369000AE44A1FB024CA0FB0365AEF17F7E361960
:1036A00055EB0C05A1FB034C4CF10003A0FB021CE5
:1036B00016EB0C06654153F10003094218BF46F0B2
:1036C000010613F4007F0BD14FEA03314FEA0530B6
:1036D000340341EA155140EA16506FF003020AE044
:1036E0004FEAC3214FEAC520F40241EA555140EAAE
:1036F00056506FF0020202EB2E4201EB025585EAB2
:10370000CE710AD05FEA440C18BF24F0004450F197
:10371000000041F1000120EAD47040F2FE7C6245D5
:1037200000D270BDA84214BF4FF080444FF0404417
:10373000002E08BF0024BEF1806FA8BFA1F1C041D8
:10374000BDE8704080F282804FF0000001F1C0417E
:1037500001F0004170479EEA0C0F0CEA131518BFE8
:1037600095EA0C0F06D04FF0000081EA030E0EF030
:10377000004170BD00F01CF88900013E00F007B860
:1037800000F009B84FEA430C5FEA5C5C08D081EABC
:10379000030100F05BB84FEA410C5FEA5C5CF6D1D4
:1037A0004FF00000014970470000FF070000F87F5C
:1037B0000EF1020E2EF0030E5EF8046B364205D4B5
:1037C000012A43EB030515F5001F12D8012841EB30
:1037D000010C1CF5001F0CD80ED14FEAD17C15F559
:1037E000001F0CEB4C0C0CF1020C08BF4CEBD37C13
:1037F00004E04FF0080C01E04FEAD37C0CEB4C05E1
:1038000026FA05F606F00706B6F1040C06D20EEB12
:10381000860CBDE870404CF0010C6047DFE80CF00E
:10382000090B02024FF000414FF00000A1F500210A
:1038300070BD19461046012851EB010418BFD4F59C
:10384000001484BF002001F0004170BD0808A0F5FD
:1038500000114FEA3101704753EA010C17D41CF5EF
:10386000801F58BFBCF5801F00F106808B4218BF37
:10387000704708BF8242704707D713F5801F58BFB3
:1038800011F5801F19D48B4270479B4270471CF57D
:10389000801F08D5BCF5801FF7D5994218BF704727
:1038A00008BF904270474FF4001C1CEB430F38BF19
:1038B0001CEB410F01D2994270470FB40CBC03BC02
:1038C000FFF7C1BE2DE9F04101F5801CBCF5001FDA
:1038D000C0F2C3804FEA115C21EA0C510CF1FD0CDF
:1038E00041F480115FEA5C0C0CF5C07C01D3400010
:1038F00049413DA4890241EA905187028E0E0A0C8B
:10390000A45D04FB04F602FB06F6C6F14046A4FBE8
:103910000662F60D46EA422606FB06F4A4FB0123E6
:103920005242C3F1404338BF5B1EA6FB0242002453
:10393000E6FB0324D20B42EA4446A6FB0623A1FB86
:1039400002E2A3FB07E4A4184FF0000252F10002C8
:10395000E3FB01426442C2F1404E38BFAEF1010EBA
:10396000A6FB04234FF00002E6FB0E32A2FB034647
:103970004FF00004B61954F10004E2FB0264A1FB0D
:1039800006E6A4FB07E816EB08064FF0000858F11E
:103990000008E4FB01687642C8F1405838BFA8F13E
:1039A0000108A2FB06E4A3FB08E52D194FF0000473
:1039B00054F10004E2FB0854A1FB05E6A7FB04E870
:1039C00018EB06084FF0000656F10006E1FB0486EE
:1039D00018F1200556F10006A809A8F11B08B10945
:1039E00008F03F08B8F10A0F40EA86601CD901EBE5
:1039F0000C51BDE8F08100BFFCF5EEE8E2DDD8D364
:103A0000CFCBC7C3C0BDB9B6B4B1AEACA9A7A5A34F
:103A1000A19F9D9B9A9896959392908F8D8C8B8960
:103A20008887868584838281A0FB006800FB01F281
:103A300008EB4208B8EB872807D5341858EB010487
:103A4000D5D5401C51F10001D1E7341A78EB0104BF
:103A5000CDD4401E71F10001C9E75FEA4C0C5FEA6A
:103A60009C5C0DD105D34FF0000001F00041BDE892
:103A7000F081BDE8F04170B5FFF79AFE6DDBFFBE47
:103A8000BDE8F0414FF00000004970470000F87FAA
:103A900010B591EA030F48BF83F000433FF546ABF2
:103AA000841A71EB030C07D212198CF0004C43EB13
:103AB0000C03001B61EB0C01DFF8A4E14FEA115489
:103AC000A4EB135C1EEA430F18BF9EEA445F00F0AC
:103AD000B08023EA6E03524221EA0451C3EB6E0325
:103AE00038BF5B1EDCF1200E25D322FA0CFE10EB52
:103AF0000E0043FA0CFE41EB0E01CCF1200E03FA4E
:103B00000EFE10EB0E0051F10001CCF1200E29D475
:103B100012FA0EF201EB0451BDE8104058BF704795
:103B2000401C1CBFB2F1004F704700280CBF491C5D
:103B300020F00100704712EB020E43EB030218BFA6
:103B40004FF0010E4EEA4202ACF1200CDCF11E0EE9
:103B500054D943FA0CFE10EB0E0051F1FF31CCF1B9
:103B60001E0ED5D50EF1010E12FA0EFE404141EBAC
:103B7000010101EB445C5FEA5C5C10D910EBDE7084
:103B800001EB045138BFBEF1004FBDE8104018BF33
:103B9000704700280CBF491C20F00100704730D24C
:103BA0004FEAD42C11F5001124F400641BD0B1FAB3
:103BB00081F20B3AA41AA41ED2F12003914030FAEC
:103BC00003F31943904001EBCC71002C01EB04513D
:103BD000BDE81040A8BF704701F1C0414FF00000A0
:103BE00001F000417047B0FA80F310FA03F100D100
:103BF00010BDE41A173C4805C90AE4E701EB04517B
:103C000010BD491001EB0451BDE810404FEA3000EF
:103C100002E04FF0000170474A0008BF0042F8D0B0
:103C2000B2F5001F28BF704701F000414FF00000BF
:103C300070479EEA445F07D011EA5E0FBDE810406E
:103C400004BF002100207047BDE8104070B5FFF7A9
:103C5000AFFD00BF40DFF63E83F0004110467047E5
:103C60000000E0FF43004FEAD30C4FEA3C0C434016
:103C70001FBF40070CF1605113F0FE4F70471CF05E
:103C8000006F03D100200CF0004170470CF000439E
:103C900043EA507010B540EACC0000F01CFA00BFB7
:103CA000000000924FEA0001FFF7D0BD4FF0004145
:103CB0004FF00000A1F500217047000090EA010FCD
:103CC00048BF81F0004100F16282421A3CBF801A75
:103CD00089184FEAD0524FF07F4C1CEA410FA2EBFB
:103CE000D15318BF9CEA026F00F03B804FF0004CAC
:103CF0004CEA00204CEA012121FA03FC10EB0C0CE9
:103D00001ED202F1FF325FEA1C2040EBC25038BFE6
:103D100070471CF07F0F4FEA400C18BFBCF17F4F7B
:103D200038BF7047C3F12003994008BF20F001005D
:103D3000BCF17F4F38BF7047A0F1C04000F011BA0E
:103D40004FEA3C00000A40EBC25028BF1CF0FF0FB6
:103D50004FEA400CE6D018BFBCF17F4F38BF704728
:103D6000EAE79CEA026F05D010EA5C0F08BF00F09A
:103D70000040704710B500F0AEF900BF64FBBE3ED6
:103D80004FF47F0C1CEAD0121EBF1CEAD11392EA3A
:103D90000C0F93EA0C0F00F0858090EA010F48BFEA
:103DA00042F4807240F4000C41F400002CF07F419A
:103DB00020F07F4000B58142A2EB03020FF2081C05
:103DC000ACEB504EC0F100009EF800E04FEA4E0E02
:103DD00000FB0EFC38BF49004FEA2C1C02F5FA022A
:103DE0000CFB0EF34FEACE1E4FEA112C4FEAC12115
:103DF0000EEB635E42EB22420EFB0CFC4FEA1C53BF
:103E000000FB03114FEA112C4FEA01310EFB0CFCB1
:103E10004FEADC4C00FB0C11C14228BF09184CEBE7
:103E200003335DF804EB10EB410143EBC250B2F5F4
:103E30007C0F38BF704729D512F0F00F1CBF00F17E
:103E4000C04000F0004070470081828384858687EF
:103E500088898B8C8D8E8F919293959697999A9C49
:103E60009D9FA0A2A3A5A7A8AAACAEB0B2B3B5B7B8
:103E7000B9BCBEC0C2C5C7C9CCCED1D4D7D9DCDF8E
:103E8000E2E6E9ECF0F3F7FAFE0000004FEA400C3E
:103E90000CF1807CBCF17E4F28BF7047B0F1C04070
:103EA00000F05FB990EA010F0CEAD11348BF42F469
:103EB0008072624538BF634507D213F47F0F16D076
:103EC00080EA010000F00040704710B500F003F9EF
:103ED000097EFC3E00F005B880EA010000F00040D9
:103EE000704780EA010000F0004000F03AB912F497
:103EF0007F0F04BF0248704780EA010000F031B92B
:103F00000000C07F41000B0ED3F19E0208D950F48F
:103F100000034FEA032323FA02F048BF40427047F0
:103F200010B500F0D8F800BF4992248000207047F7
:103F30006FF0004282EA200070470000C10DD1F10D
:103F40009E0206DB4FEA002343F0004323FA02F00F
:103F50007047004207D54FEA4001B1F1FE4F02D24F
:103F60004FF00000704710B500F0B5F8499224807A
:103F7000002070476FEA20007047000010F00041F9
:103F800048BF4042B0FA80F310FA03F2C3F19D0338
:103F90000BD051EAC35101EB1220530638BF7047D2
:103FA00000F1010008BF20F001007047B0FA80F373
:103FB00010FA03F2C3F19D030AD0D90501EB1220D8
:103FC000530638BF704700F1010008BF20F0010020
:103FD000704700004FF47F0C1CEAD0121EBF1CEA91
:103FE000D11392EA0C0F93EA0C0F00F0478090EA8D
:103FF000010F48BF42F480724FF0004C4CEA0020A1
:104000004CEA012102EB0302A0FB0113A2F500021E
:10401000002918BF43F001035B0028BF4FEA3303B8
:1040200042EB22425FEA132C4CEBC2502EBFBCEB9A
:10403000436FB2F57C0F70474FEA036CBCF1004F41
:1040400008BF20F00100B2F57C0F38BF70470BD5D8
:1040500082F0FF0212F5803FC8BF704700F1C040F8
:10406000D8BF00F00040704700F5000C5FEA4C0C30
:1040700048BF7047B0F1C04000F073B890EA010F3C
:104080000CEAD11348BF42F48072624538BF6345E1
:1040900004D280EA010000F00040704710B500F043
:1040A0001AF800BF8900013E00F007B800F009B817
:1040B0005FEA410C5FEA1C6C08D080EA010000F066
:1040C00050B85FEA400C5FEA1C6CF6D14FF000403C
:1040D000A0F5800070470EF1020E2EF0030E5EF880
:1040E000044B244204D44FEA4102B2F17F4F11D86D
:1040F0004FEA4003B3F17F4F0CD80ED14FEAD07C8A
:10410000B2F17F4F0CEB4C0C0CF1020C08BF4CEBE6
:10411000D17C04E04FF0080C01E04FEAD17C0CEBBD
:104120004C0324FA03F404F00704B4F1040C06D29F
:104130000EEB840CBDE810404CF0010C6047DFE84A
:104140000CF0070802024FF00040A0F5800010BDFF
:104150000846420018BFD2F1807288BF00F00040CC
:1041600010BDFF2141EAD050C005704780F00040EB
:1041700090EA010F7FF5A9AD81F0004100F007B88A
:1041800090EA010F48BF81F000413FF59EAD421A11
:1041900004D882F00042A0EB020011444FEAD05252
:1041A0004FF07F4C1CEA410FA2EBD15318BF9CEAA1
:1041B000026F4AD04FF0004C4CEA00204CEA01213B
:1041C00021FA03FCB0EB0C0C0FD412F0FE0F36D02A
:1041D0005FEA4C001DD5001240EBC25038BF70475B
:1041E0001CF03F0F18BF70470BE0A2F101025FEA1D
:1041F0001C2040EBC25038BF70471CF07F0F18BF27
:104200007047C3F12003994014BF401E20F0010005
:10421000704780084FEA122308BF7047B0FA80FC4D
:10422000A2EB0C02CCF1280C60FA0CF093EA122FEE
:1042300004BF00EBC25070474FEAC3707047130AC7
:104240005FEADC1008BF7047F6E79CEA026F04D013
:1042500010EA5C0F08BF0020704710B5FFF73BFF66
:1042600040DFF63E81F00040704700000000000093
:104270000000000000000000040404040400000426
:10428000000014140A0000000000000000000000FC
:104290000A0A1F0A0A1F0A0A000000040E15050672
:1042A0000C14150E0400000012150D152E2C2A12E8
:1042B00000000000040A0A36151529160000020243
:1042C00001000000000000000000100808040404C1
:1042D000040408081000020404080808080804047C
:1042E000020000000004150E0E150400000000007E
:1042F0000008083E08080000000000000000000060
:1043000000000202010000000000003F0000000069
:10431000000000000000000000000002000000207B
:104320001010080804040202010000000E1111110F
:104330001111110E00000000040604040404040E10
:10434000000000000E1111080402011F000000000F
:104350000E11100C1010110E00000000080C0C0AB9
:10436000091F081C000000001F01010F1110110E91
:10437000000000000C12010D1311110E00000000CE
:104380001E10080804040404000000000E11110EA1
:104390001111110E000000000E111119161009065E
:1043A0000000000000000400000000040000000005
:1043B00000000004000000040400000010080402D3
:1043C000020408100000000000003F003F00000051
:1043D00000000000020408101008040200000000A1
:1043E0000E11110804040004000000001C22292DF5
:1043F0002D1D221C0000000004040C0A0A1E1233AA
:10440000000000000F12120E1212120F0000000026
:104410001E1101010101110E000000000F12121205
:104420001212120F000000001F120A0E0A02121FC1
:10443000000000001F120A0E0A020207000000001E
:104440001C1201013911120C000000003312121E5F
:1044500012121233000000001F0404040404041F9D
:10446000000000003E0808080808080809070000C6
:1044700037120A060A121237000000000702020271
:104480000202223F000000003B1B1B1B15151535C7
:10449000000000003B1216161A1A12170000000046
:1044A0000E1111111111110E000000000F12120E49
:1044B00002020207000000000E1111111117190E5F
:1044C000180000000F12120E0A121237000000002E
:1044D0001E1101060810110F000000001F15040432
:1044E0000404040E00000000331212121212120C07
:1044F000000000003312120A0A0C0404000000003D
:10450000151515150E0A0A0A000000001B0A0A04F8
:10451000040A0A1B000000001B0A0A0A0404040E15
:10452000000000001F0908040402121F00001C0400
:1045300004040404040404041C000002020404042F
:104540000808081010000E080808080808080808DD
:104550000E00040A0000000000000000000000003F
:104560000000000000000000003F02040000000006
:1045700000000000000000000000000C121C123CB3
:10458000000000030202020E1212120E00000000D0
:104590000000001C1202120C000000181010101C69
:1045A0001212123C000000000000000C121E021C3F
:1045B000000000182404041E0404041E000000006F
:1045C0000000003C120C021C221C00030202020E1E
:1045D0001212123700000004040000060404040E46
:1045E000000000080800000C08080808080700037D
:1045F0000202021A0A060A13000000070404040457
:104600000404041F000000000000000F151515151C
:10461000000000000000000F12121237000000001E
:104620000000000C1212120C000000000000000F2D
:104630001212120E020700000000001C1212121CBF
:10464000103800000000001B0602020700000000F6
:104650000000001E020C101E000000000004041EDA
:104660000404041C000000000000001B1212123C95
:10467000000000000000001B0A0A04040000000003
:1046800000000015150E0A0A000000000000001BC3
:104690000A040A1B000000000000003312120C087C
:1046A000040300000000001E0804041E0000180897
:1046B0000808080C0808080818000808080808086E
:1046C000080808080808060404040408040404048C
:1046D00006001609000000000000000000000000B5
:1046E00000000000000000000000000000000000CA
:1046F000000808080808080800001818000000480A
:104700006C24120000000000000000000000000007
:10471000002424247F1212127F12121200000000C3
:10472000081C2A2A0A0C1828282A2A1C0808000013
:104730000022251515152A58545454220000000053
:10474000000C1212120A76252911916E0000000643
:10475000060403000000000000000000000000400C
:104760002010100808080808081010204000000257
:1047700004080810101010101008080402000000AF
:10478000000008086B1C1C6B0808000000000000FB
:104790000000080808087F0808080800000000005A
:1047A00000000000000000000000060604030000F6
:1047B000000000000000FE000000000000000000FB
:1047C00000000000000000000000060600000000DD
:1047D000804040202010100808040402020000005D
:1047E0000018244242424242424224180000000083
:1047F00000080E08080808080808083E0000000025
:10480000003C4242422020100804427E000000008A
:10481000003C4242201820404042221C0000000080
:1048200000203028242422227E202078000000004E
:10483000007E0202021A26404042221C00000000B4
:1048400000382402021A26424242241800000000C6
:10485000007E222210100808080808080000000046
:10486000003C4242422418244242423C00000000E4
:1048700000182442424264584040241C00000000BA
:1048800000000000181800000000181800000000C8
:1048900000000000000800000000000808040000FC
:1048A000004020100804020408102040000000000E
:1048B000000000007F0000007F00000000000000FA
:1048C000000204081020402010080402000000002C
:1048D000003C424246402010100018180000000022
:1048E000001C225A555555552D42221C000000002F
:1048F000000808181414243C224242E7000000007B
:10490000001F2222221E22424242221F00000000DB
:10491000007C4242010101010142221C0000000012
:10492000001F2242424242424242221F0000000037
:10493000003F4212121E12120242423F00000000CB
:10494000003F4212121E1212020202070000000073
:10495000003C2222010101712122221C00000000E2
:1049600000E7424242427E42424242E700000000EB
:10497000003E0808080808080808083E0000000073
:10498000007C10101010101010101010110F0000EB
:10499000007722120A0E0A1212222277000000006B
:1049A00000070202020202020202427F000000002F
:1049B0000077363636362A2A2A2A2A6B000000006B
:1049C00000E346464A4A52525262624700000000E3
:1049D000001C2241414141414141221C0000000094
:1049E000003F424242423E02020202070000000033
:1049F000001C2241414141414D53321C60000000E6
:104A0000003F4242423E1212222242C700000000F2
:104A1000007C4242020418204042423E0000000056
:104A2000007F4908080808080808081C0000000062
:104A300000E74242424242424242423C0000000001
:104A400000E7424222242414141808080000000041
:104A5000006B494949495555362222220000000081
:104A600000E7422424181818242442E7000000001C
:104A700000772222141408080808081C000000000F
:104A8000007E2120101008040442423F00000078FC
:104A9000080808080808080808080808780000003E
:104AA0000202040408080810102020204040001EC4
:104AB0001010101010101010101010101E000038E0
:104AC00044000000000000000000000000000000A2
:104AD00000000000000000000000000000FF0006D1
:104AE00008000000000000000000000000000000BE
:104AF00000000000003C4278444242FC00000000FC
:104B000000030202021A26424242261A0000000056
:104B10000000000000384402020244380000000097
:104B20000060404040784442424264D800000000A7
:104B300000000000003C427E0202423C00000000F7
:104B400000F08808087E08080808083E00000000F9
:104B500000000000007C22221C023C42423C00007B
:104B600000030202023A4642424242E700000000CD
:104B7000000C0C00000E08080808083E00000000A9
:104B8000003030000038202020202020221E00008D
:104B9000000302020272120A1612227700000000BD
:104BA000000E0808080808080808083E0000000071
:104BB00000000000007F9292929292B700000000E5
:104BC00000000000003B4642424242E70000000075
:104BD00000000000003C42424242423C0000000013
:104BE00000000000001B26424242221E0207000075
:104BF00000000000007844424242447840E0000057
:104C00000000000000774C040404041F00000000B2
:104C100000000000007C42023C40423E00000000D8
:104C200000000008083E08080808083000000000DE
:104C30000000000000634242424262DC00000000CB
:104C40000000000000E742242414080800000000CF
:104C50000000000000EB49495555222200000000E9
:104C600000000000007624181818246E00000000D0
:104C70000000000000E74224241418080807000080
:104C800000000000007E22100808447E000000C0E2
:104C9000202020202010202020202020C0001010C4
:104CA000101010101010101010101010101000061E
:104CB00008080808081008080808080806000C3248
:104CC000C200000000000000000000000000000022
:104CD00000000000000000000000000000000000D4
:104CE00000000000000000000000000000000000C4
:104CF00000000000000000000000000000000000B4
:104D000000000000000060006000600060006000C3
:104D10006000600040002000200020000000000033
:104D20000000600060006000000000000000000063
:104D3000000060066006300398018800440000000F
:104D40000000000000000000000000000000000063
:104D50000000000000000000000000000000000053
:104D60000000000000001002100210021002FE07F6
:104D7000FE0708020801080108010801FE07FE07F6
:104D8000040104010401040100000000000000000F
:104D90000000000040004000F00158034C03CC0329
:104DA0004C0058007000E000C001C00140034C03FB
:104DB0005C034C034801F00040004000000000008C
:104DC0000000000000000E010A0191009100910016
:104DD000510051003A00AE03A002500450044804B0
:104DE000480448048402840300000000000000001E
:104DF00000000000000038006C006C006C006C00CB
:104E00006C002C0098071C011A0133013301630167
:104E1000E300C308C6093C070000000000000000D2
:104E200000000C001C00100010000800040000002E
:104E30000000000000000000000000000000000072
:104E40000000000000000000000000000000000062
:104E500000000004000200018000800040004000CB
:104E60002000200020002000200020002000400022
:104E700040008000800000010002000400000000EB
:104E800000000200040008001000100020002000B4
:104E90004000400040004000400040004000200032
:104EA00020001000100008000400020000000000B4
:104EB000000000000000000000004000C0004000B2
:104EC000460C4E0FD001F0015E0F460C4000400032
:104ED0004000000000000000000000000000000092
:104EE0000000000000000000000000004000400042
:104EF000400040004000FE0F4000400040004000E5
:104F00004000000000000000000000000000000061
:104F10000000000000000000000000000000000091
:104F20000000000000000000000000000000000081
:104F300000000C001C00100010000800040000001D
:104F40000000000000000000000000000000000061
:104F5000000000000000FE0700000000000000004C
:104F60000000000000000000000000000000000041
:104F70000000000000000000000000000000000031
:104F80000000000000000000000000000000000021
:104F900000001C001C001C000000000000000000BD
:104FA0000000000400060002000300010001800070
:104FB0008000400040006000200020001000100031
:104FC000080008000C0004000600020000000000B9
:104FD0000000000000000000F00098010C030C032A
:104FE0000606060606060606060606060606060661
:104FF0000C030C039801F00000000000000000000A
:10500000000000000000000040007C006000600024
:105010006000600060006000600060006000600090
:10502000600060006000FC03000000000000000061
:105030000000000000000000F800840102030603E5
:105040000603000300018001C00060002000100082
:10505000080204020602FE03000000000000000037
:1050600000000000000000007800C60086018601F4
:1050700080018001C0007000800100010003000376
:10508000060306038601F80000000000000000008F
:10509000000000000000000080018001C001A001AC
:1050A000A00190018801880184018201FE0F800126
:1050B000800180018001E007000000000000000086
:1050C0000000000000000000FC03040004000400D5
:1050D00004000400F4008C01040300030003060331
:1050E000060382018401F8000000000000000000B7
:1050F0000000000000000000E00118030C030C0099
:1051000004000600E60116030E060606060606065D
:1051100004060C021803F00000000000000000006C
:105120000000000000000000F8070C060402040163
:10513000000100018000800040004000400060004D
:1051400060006000600060000000000000000000DF
:105150000000000000000000F8010C03060606062F
:1051600006060C021C03F000C8010C030606060626
:10517000060606060C03F001000000000000000017
:105180000000000000000000F0000C010C0306020B
:1051900006060606060606078C06780600060003C5
:1051A00000030C018C0178000000000000000000EA
:1051B00000000000000000000000000000000000EF
:1051C0000000E000E000E00000000000000000003F
:1051D0000000E000E000E00000000000000000002F
:1051E00000000000000000000000000000000000BF
:1051F00000006000600000000000000000000000EF
:10520000000000006000600040002000200000005E
:1052100000000000000000040002000180004000C7
:1052200020001000080004000800100020004000CA
:1052300080000001000200040000000000000000E7
:10524000000000000000000000000000000000005E
:105250000000FE07000000000000FE070000000044
:10526000000000000000000000000000000000003E
:1052700000000000000004000800100020004000B2
:1052800080000001000200040002000180004000D4
:1052900020001000080004000000000000000000D2
:1052A0000000000000000000E0031806040C040CDD
:1052B0000C0C0C0C00078001400040004000000076
:1052C0000000E000E000E00000000000000000003E
:1052D000000000000000E00018030C02CC0564058B
:1052E0006605A605B604B604B604B604B602E40123
:1052F0000C040C021803F000000000000000000085
:105300000000000000000000600060005000D000BD
:1053100090009000880088010801F801040304034C
:105320000402020202060F0F00000000000000004D
:105330000000000000000000FE008C030C030C03C2
:105340000C030C038C01FC000C030C020C060C0675
:105350000C060C060C03FE0100000000000000001B
:105360000000000000000000E00318030C060C041D
:1053700004040600060006000600060006000604F7
:105380000C040C021803F0000000000000000000F4
:1053900000000000000000007F008C010C030C03E3
:1053A0000C060C060C060C060C060C060C060C066D
:1053B0000C030C038C017F000000000000000000C3
:1053C0000000000000000000FF03060306040604BE
:1053D000060086008600FE00860086008600060025
:1053E000060406040602FF0300000000000000009F
:1053F0000000000000000000FF030603060406048E
:10540000060086008600FE008600860086000600F4
:105410000600060006001F0000000000000000005B
:105420000000000000000000F00018010C020C0257
:1054300004020600060006000600C60F0603060367
:105440000C030C031803F000000000000000000033
:1054500000000000000000000F0F0606060606060A
:10546000060606060606FE070606060606060606E3
:105470000606060606060F0F0000000000000000EA
:105480000000000000000000FC03600060006000FD
:10549000600060006000600060006000600060000C
:1054A000600060006000FC030000000000000000DD
:1054B0000000000000000000F807C000C000C000AD
:1054C000C000C000C000C000C000C000C000C000DC
:1054D000C000C000C000C000C60066003C00000064
:1054E0000000000000000000CF038601C600460057
:1054F0002600160036002E006E004600C60086000C
:105500008601060106038F0700000000000000006E
:1055100000000000000000001F000600060006005A
:10552000060006000600060006000600060006004B
:10553000060406040602FF0300000000000000004D
:1055400000000000000000000707860386038E03AA
:105550008E034E034E034A035A035A033A0332039F
:10556000320332031203870700000000000000002E
:1055700000000000000000008E0F0C021C021C0244
:1055800034023402640264024402C40284028403CA
:105590008403040304031F02000000000000000055
:1055A0000000000000000000F00098010C030C0255
:1055B000060606060606060606060606060606068B
:1055C0000C020C039801F000000000000000000035
:1055D0000000000000000000FF00060306060606AB
:1055E0000606060606068603FE00060006000600FE
:1055F0000600060006001F0000000000000000007A
:105600000000000000000000F00098010C030C02F4
:1056100006060606060606060606060606067606BA
:105620004C02CC039801F00080070003000000004A
:105630000000000000000000FF0106030606060649
:10564000060606060603FE004600C6008600860122
:105650000603060306060F0E00000000000000000F
:105660000000000000000000F8020C030602060221
:1056700006000E003C00F800E0038003000702066D
:10568000020606060C03F001000000000000000006
:105690000000000000000000FE07620461086108CD
:1056A00060006000600060006000600060006000FA
:1056B000600060006000F8010000000000000000D1
:1056C00000000000000000001E070C020C020C028B
:1056D0000C020C020C020C020C020C020C020C025A
:1056E0000C020C021801F000000000000000000095
:1056F00000000000000000000F0706020401040182
:105700000C010C018800880098009800500050009F
:1057100070003000200020000000000000000000A9
:105720000000000000000000F70E6204420446047E
:10573000460464026402E402E4029C029C019801B3
:105740009801880188008800000000000000000027
:1057500000000000000000009E070C010801180175
:105760009000B0006000200060006000D000900059
:105770008801080104038E070000000000000000FB
:1057800000000000000000000F0F060404020C02DD
:1057900008011801B800B0007000600060006000EF
:1057A000600060006000F8010000000000000000E0
:1057B0000000000000000000FC070C0206030201CC
:1057C00080018000400040002000200010001800F0
:1057D00008040C040402FE030000000000000000A6
:1057E0000000E00320002000200020002000200016
:1057F00020002000200020002000200020002000A9
:1058000020002000200020002000E0030000000015
:105810000000000000000400040008000800100060
:10582000100010002000200040004000C000800058
:1058300080000001000100020002000200040000DC
:1058400000007C004000400040004000400040005C
:105850004000400040004000400040004000400048
:10586000400040004000400040007C00000000007C
:10587000600090000801000000000000000000002F
:105880000000000000000000000000000000000018
:105890000000000000000000000000000000000008
:1058A00000000000000000000000000000000000F8
:1058B00000000000000000000000000000000000E8
:1058C000000000000000000000000000FF0F0000CA
:1058D0000000180060000000000000000000000050
:1058E00000000000000000000000000000000000B8
:1058F00000000000000000000000000000000000A8
:105900000000000000000000000000000000000097
:105910000000F0010C030C030003E0031C030E0362
:10592000060306038E0B7C0E000000000000000042
:1059300000000000000008000E000C000C000C002D
:105940000C00CC013C031C060C060C060C060C06D5
:105950000C060C021C03E401000000000000000023
:105960000000000000000000000000000000000037
:105970000000F0008C018C01860106000600060084
:1059800006020C020C01F000000000000000000004
:105990000000000000000002C00300030003000339
:1059A000000378038C030C030603060306030603B7
:1059B000060304038C0778010000000000000000CB
:1059C00000000000000000000000000000000000D7
:1059D0000000E001180308020C060C06FC070C008E
:1059E0000C0018041802E001000000000000000094
:1059F0000000000000000000C00360063006300018
:105A00003000FE0130003000300030003000300047
:105A1000300030003000FC010000000000000000F9
:105A20000000000000000000000000000000000076
:105A30000000F007D8068C018C018C019801F80059
:105A40000C00FC00CC03060306038E03F8000000E4
:105A500000000000000008000E000C000C000C000C
:105A60000C00EC011C030C030C030C030C030C03D3
:105A70000C030C030C039E07000000000000000054
:105A80000000000000000000600060000000000056
:105A900040007C006000600060006000600060000A
:105AA000600060006000FC030000000000000000D7
:105AB0000000000000000000C001C0010000000064
:105AC0000001F001800180018001800180018001DE
:105AD00080018001800180018001CC007C000000F9
